:020000022000DC
:1060000000000420756302005D6302005F6302000C
:106010006163020063630200656302000000000028
:1060200000000000000000000000000067630200A4
:1060300069630200000000006B6302006D630200F0
:10604000098302006F630200058802006F6302008B
:106050006F6302006F630200598602006F630200E3
:106060006F6302006F6302006F6302006F630200E0
:106070006F6302006F6302006F6302006F630200D0
:106080006F6302006D7102006F6302006F630200B4
:10609000097202006F630200A5A402006F63020090
:1060A0006F6302006F6302006F6302006F630200A0
:1060B0006F6302006F630200000000000000000038
:1060C0006F6302006F6302006F6302006F63020080
:1060D0006F6302006F6302006F6302006F63020070
:1060E0006F6302006F6302006F6302000000000034
:1060F000000000006F630200000000006F630200F8
:10610000000000000000000000000000000000008F
:10611000000000000000000000000000000000007F
:10612000000000000000000000000000000000006F
:10613000000000000000000000000000000000005F
:10614000000000000000000000000000000000004F
:10615000000000000000000000000000000000003F
:10616000000000000000000000000000000000002F
:10617000000000000000000000000000000000001F
:10618000000000000000000000000000000000000F
:1061900000000000000000000000000000000000FF
:1061A00000000000000000000000000000000000EF
:1061B00000000000000000000000000000000000DF
:1061C00000000000000000000000000000000000CF
:1061D00000000000000000000000000000000000BF
:1061E00000000000000000000000000000000000AF
:1061F000000000000000000000000000000000009F
:10620000354936480A1A02D0072291438D4634494F
:1062100034480A1A06D00722914381F309880222E2
:1062200082F3148830483149314A00F044F831484B
:106230003149324A00F03FF831483249324A00F0E1
:106240003AF832483249334A00F035F83248334997
:10625000334A00F030F833483349344A00F02BF821
:1062600033483449344A00F026F83448344900228F
:1062700000F02CF833483449002200F027F8334866
:106280003349091A082902DB002202604160314AC1
:1062900090471F481F49884205D00268043003B464
:1062A000904703BCF7E700208646EC46002000211B
:1062B000294A9047FEE7884207D0521A05D0037852
:1062C00001300B700131013AF9D17047884202D098
:1062D00002700130FAE770470000042000E003205C
:1062E00000000420000004201CB70200E02200206F
:1062F00030230020D4630200D46302000AA9020004
:106300001CB70200E0220020E0220020E0A90200E9
:10631000E0A90200E0A90200E0A90200E0A9020051
:10632000E0A90200E0A90200E0A902001CB70200F7
:106330006CB70200302300203023002030230020DF
:10634000BC2C0020BC2C0020BC2C0020BC2C00202D
:10635000BC4C00209D63020039930200FEE7FEE77B
:10636000FEE7FEE7FEE7FEE7FEE7FEE7FEE7FEE705
:10637000704700BF1048804710484FF0070188431E
:1063800085460F4880470F48016841F4700101605D
:10639000BFF34F8FBFF36F8FFFF732BF0A480B4930
:1063A0000B4A884207D0521A05D0037801300B708F
:1063B0000131013AF9D170477163020000000420F5
:1063C000E57D020088ED00E0E0A90200E022002067
:0463D000E0220020A7
:1063D400F0B595B01C46164608460D4601F042FC41
:1063E4001A9B0D93CDE9086400242346082205A9CD
:1063F40028460A948DF82C400C9401F050FC079B1D
:106404000293069B03939DF814308DF8114003F01A
:106414000302012A1DD1BDF81440059EC3F3C20333
:10642400C4F383148DF81030A20008230EA9284663
:1064340001F035FCC6F3952608AB0093224602AB67
:106444000EA9304600F0D6FB284601F00FFC15B02B
:10645400F0BD022AF8D1BDF81640C3F3C203A40963
:106464008DF810300827082C264628BF08263B46FE
:1064740032460EA9284601F012FCA41B08AB02AA5E
:1064840031460EA8374400F019FC002CEBD1DBE7B1
:10649400014B01221A7070477123002070470000DD
:1064A40070B50E4D06460FCD88B06C460FC495E806
:1064B4000F00002E84E80F004FF01F03084A09481C
:1064C400009308BF0022694601F0B4FE08B100F051
:1064D4009DFD054B1E7008B070BD00BFE0A9020011
:1064E40095640200E02200203023002007B5044B0D
:1064F4000093044A4023FFF76BFF03B05DF804FBED
:106504000D6502003123002038B50D4B0D4D0020E0
:1065140018700D4804782D5DD2B21C4665B1043064
:1065240002F0D0FD08B100F071FD084B1A7812B1E9
:106534002378002BFBD038BD0C3002F0ABFBF1E725
:1065440071230020A02A0020E02200203023002014
:1065540008B50848084A0378D35C3BB1043002F01C
:106564005BFD0020BDE80840FFF79ABF0C3002F045
:106574003BFBF6E7E0220020A02A00200120FFF7E1
:106584008FBF000008B5FFF7F9FF0421034800F0AE
:106594009FFA034B01225A7108BD00BFD0A9020023
:1065A400F4220020037813F0040216D003F003034E
:1065B400012B03D0022B09D0012070470A68008800
:1065C4000232C0F3831002440A60F5E70B68428884
:1065D400023303EB92130B60EEE7104670470000A2
:1065E4002DE9F04F87B000230446851C0DF1070008
:1065F4000F4690468DF8073000F0F6FF45480668D0
:106604003E60D0E90132134401339B1B824600F201
:106614001C4600F5836900F21447AB421BD30022E9
:10662400B8F1000F70D0052363F3070264F38912F5
:10663400DAF80010DAF808309DF807000B4003334D
:106644000D444AF82320CAF8005000F0F1FF01205D
:1066540007B0BDE8F08F0121304601F046F8484606
:1066640001F059F8384601F056F8DAF80400DAF87F
:1066740008B0029000EA0B0003300AEB800002A984
:10668400FFF790FF029B50BB0BEA03020AEB820266
:1066940003F1020CD2680392013303EA0B0B0AEBF9
:1066A4008B0B02F00302012ACDF808C0DBF80C10B2
:1066B40022D0022A16D08346384601F02FF810B1B2
:1066C400029BCAF804305946304601F00EF8DAE964
:1066D40001231344DAF8002001339B1A9DE70BEAE7
:1066E4000300C9E7BDF80E309B0903334FEA114B91
:1066F4000CEB93030293DFE7BDF80C30C3F3831371
:106704004FEA114B6344F5E7062363F3070264F38E
:106714009F528DE7442400200B4B0C48FF2210B5F8
:106724009A600022C3F81824C3E90022C3F8142491
:1067340083F8202401F04FFA044610B9044801F00C
:10674400F7FA204610BD00BF442400205CA90200D3
:1067540020AA020030B50A4C71B10A4A0A49121B38
:10676400D20800239A4201D1002030BD31F82350D1
:10677400854202D00133F5E7034654F83300F4E7C9
:1067840070A90200D0A90200E0220020094B0139BF
:1067940003EBC000032909D8DFE801F00A0204066C
:1067A4000420704700797047407970470020704793
:1067B4000220704770A90200034BD3E90030C31ACA
:1067C40058425841704700BF442400202DE9F0434B
:1067D40087B0FFF7F1FF0646002840F0FB807E4DAE
:1067E400C5F81804BFF34F8F6868AC680290204066
:1067F400033005EB800002A9FFF7D4FE029B18B119
:10680400D5F81824002A5FD004EA0302991C013346
:1068140005EB8202234005EB8303D268DB68049313
:1068240002F00303022B0392029162D1BDF80E30F1
:106834006A484FEA9318B8F1500FC14628BF4FF089
:10684400500969F38F1309F10801ADF80E3001F016
:10685400DAF90746002800F0A88001F003FA03A93A
:1068640000230822384601F010FA029924EA0106AE
:106874000136B600B14535D95FFA89F97EB3F6B26F
:10688400A9EB0609214003315FFA89F4B146544E5D
:1068940005EB810108234A46384601F0F6F936B182
:1068A40009F1080322463146384601F0EEF9029B0D
:1068B40008F1030803EB98030293D5F81834002B6E
:1068C4004BD1D5F810445BE02A689A4204D86A6038
:1068D400304607B0BDE8F08304EA030088E7404986
:1068E4003446D7E72140033108234A4605EB8101AA
:1068F400DAE7012B59D1BDF80C303848C3F38311C2
:10690400062928BF062161F3891302318900ADF8F5
:106914000C3001F078F90746002846D001F0A2F9BE
:106924000023082203A9384601F0AFF90026BDF878
:106934000C20C2F38312B300964203F10803BCD2C5
:1069440002994A1C21400331029205EB8101042281
:10695400384601F09AF90136E9E7384601F086F93C
:10696400FFF72AFF80F00100C6B2B1E7E3685B7964
:1069740023B1236839461B6820469847E3681C689E
:10698400002CF3D1384601F071F90DF107008DF8B0
:10699400074000F029FED5F818340BB9029B6B6050
:1069A4009DF8070000F044FEDAE7D5F8104454B926
:1069B4000C4B0D480D49C01AC008000440F00200F9
:1069C40000F06EF8CCE7236820469B689847E3689C
:1069D4001C68ECE700267BE7442400205CA9020045
:1069E4005024002070A9020098A902002CAA0200D9
:1069F4002DE9F74F284C80460F46924601A9012203
:106A040018469B46D4F80890FFF7EAFD80B3019D31
:106A14000026A91C5E4506EB010233D100211F4864
:106A240000F038FE80F310006A1C02EA090204EB4D
:106A34008202000405EA0903033340EA1840D060E7
:106A440014F8232068F3C50204F8232034F8232023
:106A540066F3891224F8232054F8232067F39F2235
:106A640044F8232002F0F80242F0010204F8232043
:106A740094F820341BB1FFF7A9FE0028FBD103B022
:106A8400BDE8F08F09EA020204EB82025AF82630CC
:106A9400D3600136BEE700BF4424002060280020F4
:106AA40000231A46FFF7A4BF07B50123019201AAE8
:106AB400FFF79EFF03B05DF804FB07B5CDE90023A3
:106AC40002236A46FFF794FF03B05DF804FB00005D
:106AD40030B50F49D1F81024002314463CB9C468DA
:106AE400237152B9C1F810042260184630BDE4681D
:106AF40025799D4206D02468F0E7D26811682160A8
:106B04001060F2E701330A2BE7D14FF0FF33ECE7D3
:106B140044240020094A38B50123D2F8104482F8ED
:106B240020341D4604B938BDE3685D7123682046EE
:106B34005B689847E3681C68F4E700BF44240020BE
:106B4400037A052B10B50C460FD0437A23B1084ABB
:106B54000849204600F045FE0749204600F041FE62
:106B64002046BDE8104000F031BE002AF8D0F3E71B
:106B740077AA02007CAA02009CAA0200C38873B50B
:106B840004460D4633B1144A00921449144A284667
:106B940000F027FE217A05291CD0637A4BB1A08826
:106BA400FFF7F4FD0F4B104953F82020284600F05E
:106BB40018FE227A0D4BA08853F822600021FFF7BB
:106BC400C9FD0B4903463246284602B0BDE8704071
:106BD40000F007BE02B070BD77AA020087AA0200C7
:106BE4007FAA020044AA02007CAA0200ACAA020006
:106BF4009FAA02002DE9F04385B01F460C9D002397
:106C040006460C46904695F80C902B732946384658
:106C1400FFF7B4FFB8F1060F09D8DFE808F0041253
:106C2400181F283340003146284600F0DAFD0022C0
:106C340029463846FFF784FF85F80C9005B0BDE877
:106C4400F08322683146284600F0CBFDEFE7D4E913
:106C540000233146284600F0C4FDE8E7A36800930A
:106C64003146D4E90023284600F0BBFDDFE7E368A2
:106C74000193A36800933146D4E90023284600F029
:106C8400B0FDD4E723690293E3680193A3680093FA
:106C94003146D4E90023284600F0A3FDC7E7636921
:106CA400039323690293E3680193A3680093314635
:106CB400D4E90023284600F094FDB8E708292DE91B
:106CC400F84F80460E4617461C463AD8002593F8DE
:106CD4000C901D7319461046FFF750FFDFF884A08F
:106CE400DFF884B0AE422ED918F805205946204664
:106CF40000F077FD0135082DF4D11849DFF86CB0A8
:106D0400204600F06EFD4FF0000A564520D918F8D1
:106D14000A507E2D03D8284603F064FD00B92E25C1
:106D24002A465946204600F05CFD0AF1010ABAF1F0
:106D3400080FEAD1012221463846FFF701FF84F803
:106D44000C90BDE8F88F5146204600F04AFDD1E78B
:106D54000349204600F045FDE7E700BF72AA0200A0
:106D640070AA02006EAA020068AA020074AA0200B5
:106D74002DE9F04F394E87B04FF00009384B1B789E
:106D84005FFA89F5AB4202D807B0BDE8F08F354B06
:106D9400D3F800A01AF835000124D6E9001EA0F1AA
:106DA4002002C0F1200304FA02F224FA03F313438D
:106DB40004FA00FC009301EA0C030293009B0EEA20
:106DC40003030393DDE9022313430AEBC50B41D00C
:106DD400009B21EA0C012EEA0303C6E9001301F02B
:106DE4002BFC1AF835502049A5F12002C5F12003E7
:106DF40004FA02F224FA03F31343D1E900C2AC40CB
:106E0400134004EA0C0105930024C3B2CDE9003415
:106E1400009A0491C5F12003A5F1200122FA03F39D
:106E240002FA01F848EA03081346AB401F46DDE9BD
:106E34000434444508BFBB420CD1DBF804304BB1E9
:106E44009BF801104A1E51425141081A41424141E6
:106E54002846984709F1010990E700BF302900202E
:106E64000029002038290020282900202DE9F0419C
:106E74008046204800F0A8FBD0BB0125A8F12004DF
:106E8400C8F1200325FA03F305FA04F41C431A4B52
:106E9400D3E9001205FA08F501EA050602EA040737
:106EA40056EA07001E461DD1404601F0C5FB134BB0
:106EB400D3E9001288B129432243C3E90012D6E979
:106EC40000231C430E4B0B4819681543C6E90054B4
:106ED4000022BDE8F04100F031BB21EA050122EABD
:106EE4000402EAE721EA050522EA0404C3E900549E
:106EF400BDE8F0810829002030290020282900203D
:106F040004290020042A2DE9F34105460C461646BF
:106F14003AD901F09FFAD8B11C4B1D491D601D4B95
:106F2400DFF884801C701C4B00221E600023C1E922
:106F340000231A49C1E90023013CE4B200260327D7
:106F4400FF2C0CD1164A1748002100F0E5FA03E0A3
:106F540001F048FA0028DFD002B0BDE8F08123B286
:106F640005EBC30201A992788DF8052015F83300CA
:106F74008DF8066042468DF8047001F075FA013C04
:106F8400E4B20028DCD0E7E70720E5E73829002051
:106F9400282900200029002004290020302900206D
:106FA400756D02000CAB0200716E020070B5084DE5
:106FB400084E00242B789C4201D3002070BD336816
:106FC400012113F8340001F0CBFA0134F2E700BFD9
:106FD400002900203829002070B5094D094E0024ED
:106FE4002B789C4204D30848BDE8704000F0ECBA0A
:106FF400336813F8340001F0FDFA0134F0E700BF00
:107004000029002038290020082900201FB500216C
:10701400039001AA44F20100CDE9011100F004F843
:1070240005B05DF804FB000010B572B6FFF772FD01
:10703400FFF7CCFB0028FBD1104B114C1149E41A8B
:10704400E408240444F00100FFF72AFD0E4B1B68FA
:10705400DB0700D500BE0D4944F00200FFF720FD18
:10706400BFF34F8F0A490B4BCA6802F4E062134323
:10707400CB60BFF34F8F00BFFDE700BF70A90200D4
:1070840098A9020010AB0200F0ED00E01CAB020076
:1070940000ED00E00400FA05094A537891780133C1
:1070A400DBB2994208BF0023117899421FBF0370D5
:1070B4005078182303FB002014BF043000207047CD
:1070C4003C29002073B5054600240DF107000E4647
:1070D4008DF8074000F088FA0DF10600FFF7DCFF99
:1070E40090B10670094B9DF8062045605A709DF8D2
:1070F400070000F09DFA24B9054B4FF48012C3F841
:107104000021204602B070BD0424F0E73C29002091
:1071140000E100E0024B4FF43C6043F001031847E8
:1071240030AB020038B50C4B0C4C4FF40032C3F8B2
:10713400802001254FF48033C4F84833C4F8083361
:107144006560FFF7E7FF064BA56000241C60FFF7AE
:10715400E1FF044B1C7038BD00E100E00010014069
:10716400582A0020492A0020F8B51F4B1F491B68E4
:107174000025C1F84051C1F84451C1F84851C1F843
:107184004C51C1F80051C1F804514BB3D1F8044536
:1071940017490968641A24F07F442F461A68A242EA
:1071A40009D8A41A15441A7CDE691AB11F74D3E9EC
:1071B40005209047AEB90F4A0F4B11781B788B42CC
:1071C40005D10133DBB2022B08BF00231370127800
:1071D4000A4B43F822500A4B4FF48012C3F80021A3
:1071E400F8BD3346DAE700BF5C2A002000100140F6
:1071F400582A0020552A0020542A00204C2A002016
:1072040000E100E02DE9F04FA04AA1491378097884
:10721400A04D994285B03CD00133DBB2022B08BFAC
:10722400002313709C4912789C4B0F6853F822007A
:107234003B1823F07F4300220B602B68164614464C
:10724400944613B942B12B6006E0196881420ED905
:1072540002B12B60091A19604FF001082B68DFF89E
:1072640044A201930027BEB9DFF840B266E0401A99
:107274000C44D968C3F800C0D3F81CE031B13A1902
:1072840022F07F42C3E90121DE611E4601227346DA
:10729400D7E70026B046E1E73446F6697E4A6368DC
:1072A4001268DFF80CC2A068991A21F07F41614589
:1072B40000F2A58001442160012222742A6800237F
:1072C400C4E90133E361002A40F0A2802C60CAE7DC
:1072D4005A1C9BF80210D2B291428BF8002004BFD2
:1072E40000228BF80020182202FB03B31A799C6851
:1072F400022A1CD0032A12D0012A1FD1207CE8B90B
:10730400D3E90312A2605A69E2609A69644BA261EC
:107314001B78002B0CBF0B4603466360BEE70022BC
:107324002B681146002B66D142B12B6006E0296818
:107334000A468946002A59D1002323749BF8003059
:107344009BF801209A42C3D12B682FB9019A9A4223
:1073540002D1B8F1000F43D0002B73D0D3F800A0B2
:10736400504D4D4BD5F804751C68DFF848813E1B21
:1073740098F8003026F07F4603369BB94FF48033EB
:10738400C5F84433C5F80433474B4FF400324FF08B
:107394000109C3F880211A60C5F80090FFF7BAFE0E
:1073A40088F80090B2452CBF5444A41924F07F44BB
:1073B400C5F84045D5F80435DB1B23F07F43E41BB7
:1073C400033324F07F44A3420AD9D5F80435C5F821
:1073D4004035FFF79FFE344B4FF40032C3F80021D1
:1073E4002F4B00221A7005B0BDE8F08F94422CD0C8
:1073F4009146D2699EE719740122DB6992E7D31A98
:1074040023F07F43834234BFC31A0023236053E72E
:1074140021681368994213D8591A1160E26155E73B
:10742400091AD8691A4638B1034618688842F7D34E
:10743400401A1860184613462160E061DC6112E7C7
:107444001346F2E7FFF76EFECAE74C4511D1CB694C
:107454002B6073B9DFF840E00120CDE90212CAF8CD
:107464000800CEF800300E4B1870FFF753FEDDE92C
:1074740002121368D269C9F81C2012B110680344BF
:1074840013602B68994218BF012755E7542A00203E
:10749400552A00205C2A0020582A00204C2A00206B
:1074A400482A00200010014000E100E03C290020AF
:1074B400FEFF7F00492A002008B5FFF733FE104B7A
:1074C40000200B2218809A700E4B18600E4B187017
:1074D4000E4B18700E4B4FF48012C021C3F880215C
:1074E40083F814131A6002F18042A2F56F22C2F8E5
:1074F400080583F81113074BD2F804251A6008BD58
:107504003C2900205C2A0020542A0020552A00200F
:1075140000E100E0582A0020074B9B784BB132B1C0
:1075240028B10368187C20B959745A617047072040
:1075340070470820704700BF3C2900202DE9F7431D
:107544001E4FBB7805460E469046A3B398B3042954
:107554002FD943697BB3437C0024012B0DF1070031
:107564000CBF8946A1468DF8074000F03DF80DF1A7
:107574000600FFF791FDD0B101230370104B456065
:10758400D3F80435C0E90498C0E902369DF8063002
:107594007B709DF8070000F04BF824B9094B4FF4B9
:1075A4008012C3F80021204603B0BDE8F083042410
:1075B400EFE70724F7E70824F5E700BF3C2900209C
:1075C4000010014000E100E0064A92783AB130B17F
:1075D400426922B1002202740221FFF773BD082020
:1075E400704700BF3C29002070B5EFF3108672B6D7
:1075F4000C4A946801239CB993600B4B0B4DD3F850
:10760400801029401160C3F88050D3F88410516071
:107614004FF0FF32C3F88420047006B962B670BD1F
:107624000370FAE7602A002000E100E0FC06FFBDD9
:10763400084B9A6810B55AB150B9EFF3108172B67D
:10764400054A1C6814605C685460986001B962B6AD
:1076540010BD00BF602A002000E100E001F01F021D
:107664004B090121914000EB830000F01DB801F0AB
:107674001F0301229A404B0900EB8300D14300F021
:1076840029B84B0901F01F0150F82300C84000F04D
:107694000100704750E8002F0B4640E8003C9CF086
:1076A400000FF7D11046704750E8003F43EA01024B
:1076B40040E8002C9CF0000FF6D11046704750E8CB
:1076C400002F02EA010340E8003C9CF0000FF6D1D1
:1076D4001046704750E8003F03EA010240E8002CDE
:1076E4009CF0000FF6D11046704750E8003F03EBC2
:1076F400010240E8002C9CF0000FF6D110467047C0
:1077040050E8003FA3EB010240E8002C9CF0000F7E
:10771400F6D1104670470121FFF7C6BF0021FFF7DD
:10772400CEBF10B590B1D0E9012301689B1ADBB23A
:107734000A60013BDBB2FF2B026802D1002010710A
:1077440010BD11684C1C14600B70F2E70E20F7E7B3
:1077540037B5054600240DF107008DF80740FFF703
:1077640043FF2A686B68116899420ED9481E10605D
:1077740011F8014CEB68298A01FB0434AB681179D8
:107784001B1ADBB2994238BF13719DF80700FFF74B
:107794004FFF204603B030BD37B5054600230DF139
:1077A40007000C468DF80730FFF71EFF2A681368A0
:1077B400591C1160E968641A298AB4FBF1F41C703D
:1077C4009DF80700FFF734FF03B030BD826810B5A1
:1077D40004462AB143690168006998470023A360FD
:1077E40010BD0EB403B5039921B104AB01AA0193F2
:1077F40000F074F802B05DF804EB03B070470A2996
:1078040038B504460D4602D10D21FFF7F8FFA368F1
:107814002268591CA160D554D4E901329A4204D398
:107824002046BDE83840FFF7D1BF38BD2DE9F84FF9
:107834009946DDE90A431746824688460A460126E8
:10784400BA420FD24E4538BF4E4613F0010B01D158
:1078540064B900240125B9F1010F1AD909F1FF39DE
:107864007D43F8E7B2FBF7F20136E9E79B070ED553
:10787400B9F1000F0CBF30252025A642EAD2013C05
:1078840029465046FFF7BBFF002CF6D1E1E720253F
:10789400F3E7B8FBF5F39F42E2D9DFF83C90B8FB7D
:1078A400F5F3504619F8031005FB1388FFF7A7FFFB
:1078B400B5FBF7F3BD4207D2BBF1000F02D00CB108
:1078C400A64203D3BDE8F88F1D46E8E720215046C1
:1078D400013CFFF794FFF2E736AB02002DE9F74FC6
:1078E400054617468846002900F0318118F8011B27
:1078F40049B92B7B002B00F02A81284603B0BDE850
:10790400F04FFFF763BF252940F0C080002698F8A8
:1079140000302D2B424608F1010823D0302B24D00F
:107924002B2B25D000242A2B02F1010123D13B6803
:107934001A1D1B683A601C440A4613782E2B26D164
:1079440001324FF0000A104610F8011BA1F1300C6F
:10795400BCF1090F1DD80A2303FB0A13A3F1300A53
:107964000246F0E746F00106D1E746F00206CEE70C
:1079740046F00406CBE711F8013CA3F130000928D6
:10798400DBD80A2202FB0434303C0A46CBE74FF032
:10799400000A12F8011B01F0FB0068289046F8D099
:1079A40069290ED04AD8582964D006D825296DD023
:1079B40098F80030002B99D19BE7632962D06429A1
:1079C400F6D13A68D2F80090111D89EAE97239605B
:1079D400A2EBE9724FF0010B092A5BDCD34538BFF7
:1079E400D3462CB1B9F1000F01DB710700D5013C7E
:1079F400B20702D5BAF1000F04D0F30702D4002C69
:107A04004ED10024B9F1000F52DAC9F100092D2139
:107A14002846FFF7F4FE06F00302022A05D1BAF164
:107A2400000F02D1002C47D10024CDE90046534673
:107A34000A2249462846FFF7F9FEB9E773294CD0D4
:107A440014D87029B4D13B681A1D3A6030212846F5
:107A54001C68FFF7D4FE78212846FFF7D0FE0022E9
:107A64000823CDE9003221461022E3E775292BD003
:107A740078299DD139680A1D3A60CDE900465346FC
:107A8400102228E03B681A1D19783A602846FFF74F
:107A9400B6FE8DE70A230BF1010BB2FBF3F29BE771
:107AA400A345AFD220212846013CFFF7A8FEA6E754
:107AB4007007B0D52B21ABE7A345B6D230212846B9
:107AC400013CFFF79CFEADE73968CDE900460A1D8D
:107AD4003A6053460A220968ACE73B681A1D3A60CB
:107AE400F107D3F8009020D4B9F1000F25D048460F
:107AF40002F0D9FE0646B44200D9C4B909F1FF39EF
:107B040020E028460136FFF77AFE19F8061000290E
:107B1400F7D1A642BFF44CAF002C3FF449AF20216B
:107B24002846013CFFF76BFEF3E70026EDE7202132
:107B34002846013CFFF763FEDDE74E46DBE72846B7
:107B4400FFF75DFE19F8011F0029F8D130E703B0F3
:107B5400BDE8F08F2DE9F047B0F806904479D2F8EB
:107B640000A09DF8208009FB04F4043C06460AEBBF
:107B74000300A0420F4688BFA4EB030A191DC2F8F4
:107B840000A0B1FBF9F509FB15114DB9A9EB0104EE
:107B9400544528BF5446BAF1000F04D1BDE8F0871C
:107BA4003668013DF1E704317B1970182246B8F1BB
:107BB400000F0ED001461846AAEB040A02F017FE85
:107BC400D145254436684C464FF0000128BF544641
:107BD400E1E71946F0E7FFF7A4BDF8B54679014699
:107BE400721E0546002393422D6803D30024A64247
:107BF40002D8F8BD0133F6E70F682846FFF7CCFD3D
:107C040001343946F3E72DE9F843068ACD1C0746CB
:107C1400FFF79EFD043E35440446B5FBF6F5F0B18E
:107C24004FF48073EDB28380C680013D07608146C6
:107C34004FF00008A84512D23846FFF789FD0646E2
:107C440048B163790133637108F10108C9F8000090
:107C540007608146EEE72046FFF7BFFF3446204623
:107C6400BDE8F88301210430FFF73FBD10B50121C1
:107C740004460430FFF744FD10F0FF0F04D1204602
:107C8400BDE81040FFF7A9BF10BD1FB50392002245
:107C9400009203AAFFF75EFF05B05DF804FB1FB571
:107CA40003920122009203AAFFF754FF05B05DF886
:107CB40004FB41DF70470000064B10B500241C7024
:107CC400054B1C60BFF35F8F0449054800F039F889
:107CD400204610BD742A0020782A002048AB0200F8
:107CE4006C2A002007B500230DF107008DF807303A
:107CF400FFF77AFCF1EE103A23F09F03E1EE103A1D
:107D0400BFF35F8F094B4022C3F884219DF807001D
:107D1400FFF78EFC02F0AAFB20B1FFF7CAFF03B005
:107D24005DF804FB20BF40BF20BFF8E700E100E09E
:107D3400836800225A609A60C3E90422DA601A60F8
:107D440070470B684A684360934208BF0023016090
:107D540008BF43607047436843B102689168526842
:107D64000B449342436004BF002343607047000008
:107D740010B50D49A1F59472914201D800200FE08D
:107D84008B1ADB1003EBD3735B1002EBC30452F8C2
:107D94003330834205D802D204F10802ECE760686C
:107DA40010BD2146E8E700BF98AC020008B5FFF714
:107DB400DFFF024B002808BF184608BD5DAB020078
:107DC400054B1B68082B01BF044B1868B0FA80F000
:107DD400400918BF00207047300100103401001022
:107DE40008B54FF080430022C3F80C21C3F81021DA
:107DF400C3F838254FF0805203F54043D2F80414F9
:107E0400C3F82015D2F80814C3F82415D2F80C14BA
:107E1400C3F82815D2F81014C3F82C15D2F814148A
:107E2400C3F83015D2F81814C3F83415D2F81C145A
:107E3400C3F84015D2F82014C3F84415D2F824141A
:107E4400C3F84815D2F82814C3F84C15D2F82C14EA
:107E5400C3F85015D2F83014C3F85415D2F83414BA
:107E6400C3F86015D2F83814C3F86415D2F83C147A
:107E7400C3F86815D2F84014C3F86C15D2F844243A
:107E8400C3F87025FFF79CFF10B1384B384A1A60CD
:107E9400FFF796FF18B1374BFB22C3F81825FFF7FD
:107EA4008FFF48B13449354B0A681B6822F00F0232
:107EB40003F00F0313430B60FFF782FF18B1304B3D
:107EC4004FF400721A604FF08043D3F80024D207B5
:107ED40044BF6FF00102C3F800242A4AD2F8883064
:107EE40043F47003C2F88830BFF34F8FBFF36F8F32
:107EF4004FF01023D3F80022002A03DBD3F8043216
:107F0400002B2FDA204B0122C3F80425D3F80024D8
:107F1400002AFBD04FF010221221C2F80012D3F82D
:107F24000024002AFBD04FF010231222C3F80422AD
:107F3400154B1A46D3F800140029FBD00021C3F8CE
:107F44000415D2F80034002BFBD0BFF34F8F0D493A
:107F54000E4BCA6802F4E0621343CB60BFF34F8F49
:107F640000BFFDE70A4B0B4A1A6008BD8C5600405F
:107F74004881030000F00040E40E00405802001065
:107F84004096024000ED00E000E001400400FA05E4
:107F9400FC2200200090D003074B1B5C1F2B86BFE4
:107FA40003F01F0305494FF0A041012202FA03F335
:107FB400C1F80C35704700BF52B0020000030050F6
:107FC400074B1B5C1F2B86BF03F01F0305494FF0B3
:107FD400A041012202FA03F3C1F80835704700BF3B
:107FE40052B002000003005008B50020FFF7E8FF7C
:107FF4000120FFF7E5FF0220FFF7E2FF0320BDE8C1
:108004000840FFF7DDBF0000C10710B5044642D5A4
:108014004FF08043D3F84036DA072ED54FF01023C3
:10802400D3F8043303F00703072B26D11D4B012299
:10803400C3F80425D3F80024002AFBD04FF0102104
:10804400D1F8042322F0070242F00402C1F8042309
:108054000022C3F80425134AD2F80034002BFBD0C5
:10806400BFF34F8F1049114BCA6802F4E062134307
:10807400CB60BFF34F8F00BFFDE74FF0A0420C4928
:108084000323C2F81837C2F82037C1F82437C2F8DE
:108094003037FFF7A9FFA30742BF054B0C22C3F8F3
:1080A400182710BD00E0014000ED00E00400FA05CF
:1080B4000003005038B5074C051E04F1080318BF2F
:1080C4001C4623682BB11A6822605B6828469847CF
:1080D400F7E738BD842A002020B9054B01225A70E5
:1080E400FFF7E8BF012802D1014A9070F8E7704712
:1080F4007C2A002020B9034B01225A70FFF7DABF13
:10810400704700BF7C2A002038B50B4C237883B914
:108114000A486360A3602361E36000F0C9F8054680
:1081240002F0A4F908B900F0CFF80123237028461F
:1081340038BD8525FBE700BF7C2A0020DD800200D6
:1081440037B50B4C00230DF107008DF80730FFF70E
:108154004BFAE368013BE360E56815B900F0C6F843
:10816400A5709DF80700FFF763FA03B030BD00BFA8
:108174007C2A0020012813B509D018B103281CD08B
:1081840002B010BD0F4B0122C3F88020F8E70E4C5B
:1081940000230DF107008DF80730FFF725FA237847
:1081A4000BB9FFF7B1FFE3689DF807000133E36003
:1081B4000123A370FFF73CFAE2E700F085F8FFF72C
:1081C400BFFFDDE700E100E07C2A00201FB5037853
:1081D4008DF800304368019383688DF80830C368D4
:1081E4000393054A054B684653F8213052F8211091
:1081F400984705B05DF804FB902A0020982A0020D7
:108204001FB503788DF800304368019383688DF8B7
:108214000830C3680393054A054B684653F8213078
:1082240052F82110984705B05DF804FB902A00200D
:10823400982A0020F0B5194B0678DFF870E043F86F
:108244002620174B94460A6943F826204B7F0EF8E4
:1082540006300C4607460FCC89B06D460FC594E82E
:108264000F0085E80F001EF80630049653B1BCF1E8
:10827400000F0C4A694608BF0022381D00F0F0FDCB
:1082840009B0F0BDBCF1000F074A694608BF0022DF
:1082940007F10C0000F0D4FBF2E700BF982A00209D
:1082A400902A0020D181020005820200A02A002029
:1082B400044A137923B9012110609180184670474C
:1082C40085207047A42A0020074B1A68D2075FBF95
:1082D400C02283F8002301221A604FF08043012258
:1082E400C3F81825704700BF00E100E0044B0122E9
:1082F4001A604FF08042D2F81834DB03FBD4704785
:108304000C000040154B07B51A687AB100221A60B8
:108314001B680093009B4FF080430122C3F808239D
:108324000F4B587910B95A711B6898470D4B1A684E
:1083340082B100221A601B680193019B4FF08043B5
:108344000222C3F80823064B1B68012003B05DF822
:1083540004EB184703B05DF804FB00BF00010040C4
:10836400A42A00200401004000F1804000F5C04030
:10837400002382B0036003680193019B02B070473D
:1083840003681F2B83BF03F01F03036001484FF0F2
:10839400A04070470003005007B5019001A8FFF703
:1083A400EFFF019B00EB8300D0F8002722F440325A
:1083B400C0F80027D0F8003743EA0143C0F800377B
:1083C40003B05DF804FB0000054B4FF0FF320728B3
:1083D40043F8202084BF1B1883F85820704700BF3F
:1083E400AC2A002010B5174C94F86A3043BB04F152
:1083F40030033021FF22013911F0FF0103F8012B72
:10840400F9D1C8B2FFF7E0FF01310C29F9D10622F6
:1084140000210D4802F014FA0C4BC02283F8062305
:1084240040221A604FF4BE70FFF79EFF084B4FF0D6
:108434000042C3F80423012384F86A30002010BDED
:108444000820FCE7AC2A0020102B002000E100E00B
:1084540000600040034B93F86A00003018BF01200D
:10846400704700BFAC2A0020F7B53B4E33180546D1
:1084740093F93030002B6CDA8B78C3F34003002B74
:108484000BBF082400240C200820844202D10420BD
:1084940003B0F0BD56F82470013743D1701946F883
:1084A400242080F8304013B9331983F858508B785E
:1084B4005A0717D4D80737D501A80195FFF760FFED
:1084C400019B00EB8300D0F8003723F00203C0F8CF
:1084D40000372248EA0805F007070123BB40875C00
:1084E4003B43835488780A7810F0020028D0A40013
:1084F40004F1804404F5C0442D02D4F8103523F46B
:108504004F3323F44073C4F810351204D4F81035F3
:1085140005F47C5502F4403215431D43C4F810554C
:108524000020B5E70134B0E701A84A780195FFF7C8
:1085340027FF019B03F5E073920040F82320C8E76E
:10854400083C344494F8605045EA821284F8602070
:108554009EE708209CE700BFAC2A0020102B0020D7
:1085640073B5224C2518064695F93020072A19DDE3
:10857400224492F858309B09032B0FD1019001A893
:10858400FFF7FEFE019AD0F81035D340DB0707D47D
:1085940002213046FFF700FF02B070BD012BF7D077
:1085A4000321F6E7D3B2072BF6D8930003F18043F7
:1085B40003F5C043D3F8100540F00100C3F81005DB
:1085C40002F14000800080B2FFF7CEFE0029E3D024
:1085D40095F9303054F82330002BDDD0012303FA11
:1085E40002F2034BC3F80423D6E700BFAC2A0020F1
:1085F400006000400E4B034493F93020072A02DD4B
:108604000021FFF7C9BED3B2072B10D8930003F1A2
:10861400804303F5C043D3F8101521F00101C3F8DA
:108624001015012303FA02F2024BC3F80823704722
:10863400AC2A00200060004007B5019001A8FFF7B4
:108644009FFE019BD0F81005D84000F0010003B054
:108654005DF804FB2DE9F04F002489B0CDE9024414
:10866400624D4FF48072012102F1804303F5C0434F
:1086740090B21B68012B06D1D5F804330B4202D00B
:10868400FFF772FE0C430432B2F5907F4FEA4101CA
:10869400EAD1574B1B68012B0ED14FF4BE70FFF784
:1086A40063FE4FF0A04344F00044D3F81035029326
:1086B400504BD3F81035039314F0FF0F1AD04E4FDC
:1086C40000250126344210D0AB0003F1804303F5AA
:1086D400C043D3F81005D3F8101557F8253023B14B
:1086E400C1F30141C0F3052098470135082D4FEA35
:1086F4004606E7D1002C75DA0DF110080023049327
:10870400C8F804304FF0FF33CDE90633DFF8E8A0B2
:10871400DFF8E89000273D4619F9014B631C48D067
:10872400E4B2012324F0C00604F0070203FA02F2C3
:10873400F00808AB191811F8083C134239D00AEBB9
:108744000603A40993F930305AF823B0BBF1000FA3
:1087540008D1032C2DD118F800C04CEA020C08F8FB
:1087640000C001E0032CF6D001A80196FFF708FE33
:10877400019B11F8181C03F5E07C114250F82C0001
:10878400C0F3014005D0022813D1032C0BD121469C
:1087940004E003280DD1032C05D102213046FFF754
:1087A400FBFD0135EDB2BBF1000F02D0214630468E
:1087B400D8470137042FAFD1A5B14FF0A043029998
:1087C400D3F8102503F540739142D3F8103502D144
:1087D4000399994206D002920393049A059B069248
:1087E400079395E709B0BDE8F08F00BF0060004033
:1087F4007C61004000030050AC2A00200C2B0020B8
:10880400014B1B68184700BF182B00200E4B9842E1
:1088140037B50D4602D0002003B030BD00230DF162
:1088240007008DF80730FEF7DFFE084B1C7914B9FA
:1088340001221D601A719DF80700FEF7F9FE002C55
:10884400E9D01120E8E700BF00200040182B0020E9
:10885400034B984201BF034B00221A601A71704700
:1088640000200040182B00200023435082B04358BE
:108874000193019B02B070470A4610B54FF48E7104
:10888400FFF7F2FF136A9168C95C136A013313623C
:10889400C0F81C1510BD8B690A4610B54FF48471DD
:1088A40023B9FFF7E1FFD0F8183510BDFFF7DCFF5F
:1088B400536AD168D0F81805C854536A0133536217
:1088C400F3E700001FB501238DF80030044BCDE918
:1088D4000110D3E900126846904705B05DF804FB27
:1088E400202B002030B54C4AD2F8043313F4007F17
:1088F40085B015464FD0D2F82431002B4BD04FF41D
:1089040092711046FFF7B0FF4FF40173C2F80833B9
:10891400424B93F8291009B9012151603E490222C2
:108924008DF80020D1F88024C1F8802403929A693C
:108934000292DA6801920022C3E906226846D3E96A
:10894400001290473448D0F81C315BB133490A6AAD
:108954004B699A420A464BD291F82830002B47D1F2
:10896400FFF78AFF2C4AD2F8443193B14FF4A27135
:108974001046FFF779FF294B93F8291009B101211B
:1089840011609A692AB100229A61586AD968FFF77E
:1089940099FF05B030BDD5F804335B07D2D5D5F8BF
:1089A4000831002BCED01D4C1B482146FFF773FF26
:1089B400636AA2699A422346C4D1E269E1684AB172
:1089C4002369E3600023606AA261E3616362FFF7E5
:1089D40079FFB7E794F829200AB901226A600E4AA0
:1089E4004FF40170C2F8080300229A61586AEEE756
:1089F4004FF48E710848FFF737FF51690029B1D051
:108A04000023029191688DF800300191536168460A
:108A1400D2E900139847A5E700200040202B00204E
:108A24001F2886BF00F01F00044B4FF0A04300F541
:108A3400E070022243F82020704700BF000300507A
:108A44002DE9F843624F047991462C2202FB04720B
:108A5400064692F82A200D46002A40F0B3805D496C
:108A64000068FFF7D3FE8046002840F0AE802968F6
:108A74004A1C10D01F2987BF01F01F03564A0B461A
:108A84004FF0A0420120984003F5E073C2F80805B6
:108A9400032042F823006868431C0DD01F288BBFB5
:108AA40000F01F0303464C4A4FF0A04203F5E07365
:108AB4004FF0000C42F823C03368AA6995F814C03B
:108AC400C3F824256A7DBCF1010F4CEA0202C3F805
:108AD4006C25C3F81405C3F80C152BD1A968481CE0
:108AE4000DD01F298BBF01F01F020A463A484FF0F0
:108AF400A04002F5E0724FF0000C40F822C0E86894
:108B0400421C13D01F2887BF00F01F0C324A844632
:108B14004FF0A0424FF0010E0EFA0CFE0CF5E07C73
:108B2400C2F808E54FF0030E42F82CE0C3F808053C
:108B3400C3F810152C236343FA18C2F804902A6969
:108B4400FA50B9F1000F2AD04FF48E7130682D7F9E
:108B5400FFF78AFE30684FF4A271FFF785FE326892
:108B64001E4BC2F80433120B51B20029A8BF01F105
:108B740060404FEA4513BABF194802F00F0500F5EB
:108B84006140DBB2B4BF435580F8003302F01F02EA
:108B9400012303FA02F24909124B43F821203368F6
:108BA4000422C3F800252C2303FB04730022C3E929
:108BB400062283F829205A61012283F82A2040469C
:108BC400BDE8F8834FF00808F9E74FF01108F6E71D
:108BD400202B0020E98802000003005080000200DE
:108BE40014ED00E000E100E02DE9F04103680479B0
:108BF400254D0022C3F800252C2202FB0452064610
:108C0400526872B1214AC3F80823190B4AB20120F1
:108C1400520901F01F0100FA01F120321C4840F80A
:108C24002210D3F80C05D3F81485D3F80815D3F81B
:108C340010754FF0FF329042C3F81425C3F80C2589
:108C4400C3F80825C3F8102501D0FFF7E9FEB8F1F1
:108C5400FF3F02D04046FFF7E3FE7A1C02D03846BD
:108C6400FFF7DEFE4B1C02D00846FFF7D9FE306842
:108C7400FFF7EEFD2C2303FB0454002384F82A3071
:108C84006360BDE8F08100BF202B00208402020055
:108C940000E100E02DE9F843224F06794FF02C095A
:108CA40009FB067480466569002D37D16261A160B5
:108CB40025624FF48E71006884F82850FFF7D4FDC4
:108CC400D8F80000012383602146FFF7D5FD6368CF
:108CD400A1462BBBD8F80050226A63699A4212D38A
:108CE400D8F80030D3F81C21002AFBD00122DA6026
:108CF40000202C2303FB067600237361BDE8F88370
:108D040094F8283043B9D5F81C31002BF8D04946E3
:108D14002846FFF7B1FDDFE70F20EAE71120EDE772
:108D24002846EBE7202B00200023435082B0435811
:108D34000193019B02B070471FB501238DF80030E9
:108D4400044BCDE90110D3E900126846904705B001
:108D54005DF804FB4C2B00207FB5374AD2F8246120
:108D6400002E48D010464FF49271FFF7DDFF022326
:108D74008DF80030D2F88034C2F880340393D2F8EE
:108D84003C3502932D4BDA6801920022C3E9062296
:108D94006846D3E900129047274AD2F844317BB1A0
:108DA4004FF4A2711046FFF7BFFF244B996939B104
:108DB4000021C3E90611D968D2F83C05FFF7BCFFCE
:108DC4001D4AD2F82031A3B14FF490711046FFF739
:108DD400ABFF1A4B596961B1D2F84C1502910022CC
:108DE40099688DF8002001915A616846D3E9001210
:108DF400904704B070BDD2F81031002BCCD04FF4A2
:108E040088711046FFF790FF0C4BD2F83C05996926
:108E14008842C1D1DC69D96864B1D2F8005225F026
:108E24002005C2F800521A699C61DA60DE61FFF71E
:108E340083FFB1E79C61FAE7002000404C2B00203F
:108E44001F2886BF00F01F00044B4FF0A04300F51D
:108E5400E070022243F82020704700BF0003005056
:108E64002DE9F843664F06799146242202FB0672E7
:108E7400044692F820200D46002A40F0BB80614948
:108E84000068FFF7C3FC8046002840F0B6802868DD
:108E9400421C10D01F2887BF00F01F035A4A034604
:108EA4004FF0A0420121994003F5E073C2F8081580
:108EB400032142F8231069684B1C0DD01F298BBF76
:108EC40001F01F030B46504A4FF0A04203F5E07334
:108ED4004FF0000C42F823C02368AA6995F814C027
:108EE400C3F824256A7DBCF1010F4CEA0202C3F8E1
:108EF4006C25C3F80C05C3F814152BD1A968481CBC
:108F04000DD01F298BBF01F01F020A463E484FF0C7
:108F1400A04002F5E0724FF0000C40F822C0E8686F
:108F2400421C13D01F2887BF00F01F0C364A84460A
:108F34004FF0A0424FF0010E0EFA0CFE0CF5E07C4F
:108F4400C2F808E54FF0030E42F82CE0C3F8080518
:108F5400C3F8101524237343FA18C2F804902A693D
:108F6400FA50B9F1000F34D04FF4887120682D7F86
:108F7400FFF7DAFE4FF490712068FFF7D5FE4FF447
:108F840092712068FFF7D0FE20684FF4A271FFF7BA
:108F9400CBFE22681D4BC2F80433120B51B20029D8
:108FA400A8BF01F160404FEA4513BABF184802F068
:108FB4000F0500F56140DBB2B4BF435580F80033C0
:108FC40002F01F02012303FA02F24909114B43F88C
:108FD400212023680822C3F80025242303FB0673F9
:108FE4000022C3E906225A61012283F82020404668
:108FF400BDE8F8834FF00808F9E74FF01108F6E7E9
:109004004C2B00205D8D0200000300501003020071
:1090140014ED00E000E100E02DE9F041036804797B
:10902400254D0022C3F80025242202FB04520646E3
:10903400526872B1214AC3F80823190B4AB20120BD
:10904400520901F01F0100FA01F120321C4840F8D6
:109054002210D3F80C05D3F81485D3F80815D3F8E7
:1090640010754FF0FF329042C3F80C25C3F8142555
:10907400C3F80825C3F8102501D0FFF7E1FEB8F1C5
:10908400FF3F02D04046FFF7DBFE7A1C02D0384691
:10909400FFF7D6FE4B1C02D00846FFF7D1FE30681E
:1090A400FFF7D6FB242303FB0454002384F8203069
:1090B4006360BDE8F08100BF4C2B00201003020068
:1090C40000E100E001F06043B3F1005F2DE9F041FD
:1090D400074632D11C4B0679242505FB06359846F4
:1090E4006C6964BB6A61A96000684FF49071FFF712
:1090F4001BFE4FF4AC713868FFF716FE3B686A69D3
:10910400A968C3F84415C3F8482501229A606A681F
:10911400BAB9D3F82011D3F8582149B9002AF8D0A4
:109124000F20242303FB068600237361BDE8F0812E
:10913400002A14BF0F200020F3E71020F6E71120C7
:10914400F4E72046F2E700BF4C2B002072DF7047A3
:1091540073DF704776DF70477ADF70477CDF7047D4
:109164007FDF70478FDF7047B1DF7047FDF74EBF79
:1091740008B5064B01211878FFF7EAFF08B1FDF79F
:1091840045FF0020BDE80840FEF706BF1823002075
:109194000388212B13B5044652D024D8112B2DD08B
:1091A400132B45D0102B41D12D4B2E482E49C01ADC
:1091B400C008000440F00300FDF772FC0120FEF734
:1091C400EBFE0020FEF7FCFE284BA18828481980FE
:1091D40000F0C0FF08B1FDF719FFFDF7E7FE28B363
:1091E400FDF714FF22E0522B32D0562B01D03B2B3B
:1091F4001CD11321A088FFF7ADFFF0E7184B1948E5
:109204001C49C01AC008000440F00300FDF748FCE4
:109214000120FEF7D5FE154B4FF6FF721A80FDF7BD
:10922400DBFE08B1FDF7F2FEFFF7A2FF02B010BDAE
:109234000E4800231A4685210088FFF791FFCEE7E8
:10924400002301A98088ADF80430FFF78BFFC6E73F
:10925400064800231A4619460088FFF785FFBEE733
:1092640070A9020098A9020078B002001A23002015
:10927400DC2B002082B0020008B503784BB9054B03
:109284003B211888FFF766FF18B1BDE80840FDF7D9
:10929400BDBE08BD1A230020262810B50C461AD1DD
:1092A4000F4B10481049C01AC008000440F00300D6
:1092B400FDF7F6FB0D4B0E491888224601F02EF8F7
:1092C40030F008020BD043F20202904207D043F27E
:1092D4000142904203D0BDE81040FDF797BE10BD97
:1092E40070A9020098A902008FB002001A2300207E
:1092F400C42B002010B50A4B0A4CE41AE4082404D9
:1093040044F0030402203AB1FEF746FE0649204623
:10931400BDE81040FDF7C4BBFEF752FE0349F6E773
:1093240070A9020098A90200A9B00200BAB0020014
:10933400FDF76CBE00B54FF40041A7B00020FDF767
:10934400EBF908B1FDF762FEFDF71CF90120FEF709
:109354005BFEFEF7B1F808B1FDF758FE40F2666215
:1093640001216948FDF7CEFD08B1FDF74FFEFEF778
:10937400A3FC08B1FDF74AFE01F03AF808B1FDF785
:1093840045FE002317A90120179301F0B9F808B18D
:10939400FDF73CFE17A801F063F908B1FDF736FEAE
:1093A40011235A488DF8203001F07DFA574982B2D2
:1093B40008A8FFF7D3FE08B1FDF728FE0822002114
:1093C40017A801F03DFA524A4FF0C87317A8CDE927
:1093D4001723FFF7C1FE08B1FDF718FE00214D4821
:1093E40000F0B0FD08B1FDF711FE0023089317A9A2
:1093F400494B4A48179300F09BFE08B1FDF706FE5F
:10940400474B4848089308A900F01AFF08B1FDF734
:10941400FDFD41F22353ADF80430424B424C9B7C9A
:109424008DF806303C22002108A801F009FA022335
:109434008DF820303C2240F20163002117A8ADF8DA
:10944400223001F0FDF922460123ADF86C3052F8C8
:10945400041B01AB08A81C9300F0EAF808B1FDF75F
:10946400D5FD324AA16817A800F0E2F808B1FDF76B
:10947400CDFD1822002102A801F0E2F90023012207
:10948400ADF8143003934FF480738DF80820ADF8D1
:109494001C3002AA4023244925480493FFF756FEB2
:1094A40008B1FDF7B3FD1C22002117A801F0C8F98B
:1094B40000234FF42022CDE91732ADF86A304FF47F
:1094C40020328DF86C301B4B19921C9303221A4BDB
:1094D4008DF8682017A81D9300F074FB08B1FDF700
:1094E40095FD164B16481749C01AC008000440F0F1
:1094F4000300FDF7D5FAFFF73BFEFDF767F90028F7
:10950400FBD1FEF7EFFBF8E700230020CCB002000C
:109514005000A000B02B002071910200DC2B002031
:10952400F9920200C42B00200823002014230020F9
:10953400182300207D9202003593020070A90200D6
:1095440098A90200DAB002006DDF704779DF704736
:109554007DDF704764DF70472DE9F74F0C9CBDF841
:1095640034B02788002580468A4691462E46B8F8AE
:109574000020B2420BDC35B12288013AD21B92B2F0
:10958400FF2A39D8DA55002003B0BDE8F08FD8F8A7
:10959400042052F82600019000220DF1030101A8D5
:1095A400FFF7D8FF0028EFD19DF803204A4521D1C9
:1095B4002288002D14BF0020022002EB090101447F
:1095C400594519DC3DB9013292B2228003F802A058
:1095D40022880132228022880DF103011A4401A855
:1095E400FFF7B8FF0028CFD121889DF803200A4453
:1095F400228001250136BAE70C20C5E72DE9F341A5
:10960400089CBDF824501746CDE9004502220646C1
:10961400FFF7A2FF48B9102239463046CDE9084584
:1096240002B0BDE8F041FFF797BF02B0BDE8F0819A
:109634002DE9F04F00231688138090F82D3085B063
:1096440007460D46144653B3082E01D80C2028E1D2
:1096540002A8FFF779FF002840F02381138808222D
:10966400CA54238801339BB21B222380CA54208806
:10967400013080B2208006220DF10901284401F056
:10968400B6F823889DF8082006339BB212F0FE0238
:1096940018BF01222380EA54238801332380BB7836
:1096A400FBB123880433B342D0D802A8FFF74EFF9E
:1096B400002840F0F68023880322EA5423880133EB
:1096C4009BB219222380EA542388BDF80820013371
:1096D4009BB2E9182380EA54120A4A7023880233A1
:1096E4002380FA789AB12388D91CB142AED80221DA
:1096F400E954238801339BB201212380E954238850
:109704000B449BB22380EA5423880B4423807A6859
:10971400AAB12388D91CB14298D8022192F9002019
:10972400E954238801339BB20A212380E954238816
:1097340001339BB22380EA542388013323803B897D
:10974400002B40F0A2803B8A5BB1CDE900462B465A
:109754000722032107F11000FFF750FF002840F013
:10976400A0803B8B5BB1CDE900462B46152214212A
:1097740007F11800FFF742FF002840F092803A6A90
:10978400002A40F09180D7F82480B8F1000F30D03F
:10979400B8F804302188981C8A1C0244B2423FF66F
:1097A40055AFFE283FF652AF03336B542388013381
:1097B4009BB2FF222380EA54238801339BB2238087
:1097C400B8F80020EA54E918120A4A7020880230D6
:1097D40080B22080B8F804205AB1D8F808100029C3
:1097E4006CD0284401F003F82388B8F8042013440B
:1097F400238097F82C30002B40F09B803878002889
:109804004FD03B88012B59D0228802F1020CB44579
:109814003FF61CAF012805D17B78023313449E42E6
:10982400FFF414AF023EB61AB6B202A905EB0C005F
:10983400ADF80860FFF78CFE98BB3978BDF80820B6
:10984400022900F0BB807B78934202D3B24240F2FB
:10985400B380012940F0B4809BB29E42C0F0B08036
:10986400ADF808300821BDF80830FE2B3FF6EEAE07
:1098740022880133AB542288013292B22280A95447
:1098840022881344238000200BE0CDE900462B46B8
:109894000622022107F10800FFF7B0FE00283FF47A
:1098A40052AF05B0BDE8F08FB4F800C00CF1060368
:1098B400B3423FF6CBAE1188052901D80720F0E763
:1098C4006FF4486E01EB0E039BB24FF27D3E73457D
:1098D400F4D95388052BF1D96FF44860181880B275
:1098E4007045EBD94FF6FF70814203D0834201D01B
:1098F4009942E3D8052305F80C30238801339BB241
:1099040012212380E954238801339BB223801188D8
:10991400E954E818090A4170238802339BB2238072
:109924005288EA54E918120A4A70238802332380C1
:1099340029E7BB6A002BC1D04FF000094FF00C0A95
:109944004FF0160B97F82C305FFA89F293427FF6AA
:1099540055AFB96A0AFB02F201EB0208B8F8043009
:10996400981CFE283FF672AE208803332B542388BC
:1099740001339BB2238005F803B0238801339BB2E3
:1099840023808A5AEA54E918120A4A70208802305D
:1099940080B22080B8F804205AB1D8F80810002901
:1099A4008CD0284400F023FF2388B8F80420134403
:1099B400238009F10109C5E7092154E7B242FBD923
:1099C400ADF808604EE775DF704776DF70477ADFE1
:1099D40070477BDF70470000034B1A8882420CBF3C
:1099E40018460020704700BF042C0020024B9B69DE
:1099F40003B11847704700BFE82B002037B585B284
:109A04002846FFF7E9FF034670B1164C017A227B22
:109A140091420BD200F10A012846FFF7D4FFE8B1C6
:109A2400112801D0FFF7E2FF03B030BD237C0022F0
:109A3400027243B13B212846FFF7C7FF30F0080309
:109A440001D0FFF7D3FF6369002BEDD000228DF81E
:109A54000420ADF8065001A89847E5E71A7A0132C8
:109A64001A72E1E7E82B002013B50B46497A0F4C34
:109A7400024669B9D4E901101C7A002C18BF0146CA
:109A84005868FDF75BFD08B1FFF7B0FF02B010BDE9
:109A9400002119726369002BF8D00121ADF806008A
:109AA4008DF8041001A89847F0E700BFE82B0020C8
:109AB4004B8802889A4213D842889A4210D38088ED
:109AC4008A8840F2F313984294BF031AC31A93424C
:109AD40006D800F2F310904234BF002001207047F2
:109AE400002070470388112B70B5014648D002D876
:109AF400102B1ED070BD122B52D0502BFAD12F4BED
:109B0400C288DB899A42F5D1038A022BF2D1868876
:109B14003046FFF761FF05460028EBD001F1120043
:109B240000F021F930BB6868FDF74EFD0028E1D054
:109B340009E0C37B012BDDD14FF6FF70FFF74CFF2B
:109B4400054620B90420BDE87040FFF74FBF1C4A0A
:109B54008E880680002303721368C5F80A300A3021
:109B6400536843601031FFF7A3FF144B6872DB891D
:109B7400002BBFD129463046BDE87040FFF774BFC3
:109B84008088FFF729FF04460028B3D04068FDF71A
:109B94001BFD08B1FFF72AFF4FF6FF732380A9E7E7
:109BA40086883046FFF718FF05460028A2D0083102
:109BB4000A30FFF77DFF6872DCE700BFE82B002066
:109BC400182C0020F8B5064648B305460FCD154FAE
:109BD4003C460FC495E8070084E807003068124B40
:109BE4003B60B0B1FFF7F3FEC0B931680A681A6090
:109BF4004A685A600D480E4A4FF6FF7303800D4BB6
:109C040040F8043F0021FDF787FC002818BF03201B
:109C140004E01846FFF7DDFE0028EBD0F8BD0E2067
:109C2400FCE700BFE82B0020182C0020042C0020A7
:109C3400019A0200202C002073B50191019C064674
:109C44006CB100252C46294601A8FDF71AFD18B170
:109C540006EB440301349D800135142DF3D13046C5
:109C6400346002B070BD00002DE9F0470388848899
:109C7400112B8CB006463CD01A2B3FD0102B17D199
:109C8400274DAB68DB43009369686846FDF722FD06
:109C9400009901A8FFF7D0FF0DF108094FF0000863
:109CA400019B984507D3132C13D90420FDF7AEF973
:109CB4000CB0BDE8F08739F802AB002701375146F4
:109CC40005EB8700FDF7D3FC1D2FF7D108F1010840
:109CD400E6E721461348FDF7C1FC21461248FDF78B
:109CE400BDFCF37B012BE3D010482146FDF7B6FC05
:109CF400DEE70C482146FDF7BAFCD9E7057A0C48A3
:109D04002D09012D214606D9FDF7A8FC022D214677
:109D14000848F0D0EAE7FDF7AAFC21460548EAE73F
:109D2400402C0020482C0020442C00204C2C0020E7
:109D3400502C0020542C0020AADF70470023013847
:109D44000B70042806D8DFE800F00306080A0C00AC
:109D540011230B7070472123FBE73123F9E712230A
:109D6400F7E72223F5E7007800F001007047F0B52B
:109D74008B7891B0002B0C4608BF01238DF80E3070
:109D840005460B88ADF80C300021164668460322C0
:109D940000F056FD6946607CFFF7D0FF0DF101012C
:109DA400A07CFFF7CBFF9DF80230E27B62F3C30394
:109DB400227C62F30413227B62F30003227D002AD7
:109DC40014BF0222012262F3420300211C2209A8CB
:109DD4008DF8023000F034FD637B13F0300F15D0A2
:109DE40002AF03220021384600F02AFD0DF10901DB
:109DF400E07CFFF7A3FF11238DF808309DF80A30AB
:109E04000E97012262F342038DF80A30637B8DF8CA
:109E140024301422A37B8DF82530002104A800F0FF
:109E24000FFD03AB0493A388ADF81C30A368CDF8F1
:109E340014D01BB1E288ADF818200893A369002B55
:109E44002ED001AF03220021384600F0F9FCA369AB
:109E54001A88ADF82C205A88187BADF82E20394684
:109E64005A680A920D97FFF769FFA3690DF105017E
:109E7400587BFFF763FFA2699DF80630917A61F37E
:109E8400C303D17A61F30413117A927B002A61F33C
:109E9400000314BF0222012262F342038DF806304C
:109EA400E36903B10C93334604AA09A92846FFF7D2
:109EB40043FF11B0F0BD90DF7047A5DF7047B5DFF9
:109EC400704700007FB50023ADF80810ADF80A1004
:109ED4006A4602A9064603930093ADF80430FFF7DF
:109EE400EAFF054600B3124B124CE41AE408FDF7EE
:109EF4005DFF240444F00104034632460E49204623
:109F0400FCF7DBFDBDF80020BDF8023052EA030186
:109F140003D00A492046FCF7D0FDBDF804201AB14D
:109F240007492046FCF7C0FD284604B070BD00BFB9
:109F340070A90200A8A90200F2B002003CB102001C
:109F44007BB1020078B14FF0171303601B23037138
:109F54001723C380038141F61B320023016143812F
:109F64008281184670470E207047000013B50346DF
:109F740080880C46A0B91A88232A00F0A38011D83F
:109F8400102A22D0112A51D0A37A4BB1E1880020A3
:109F9400FFF793FF002840F09B804FF480736381A8
:109FA40002B010BD3A2A49D0552A5FD0242AEBD1F9
:109FB4001A7A0B694A73002BE6D04DF67A21ADF874
:109FC400040000918DF8042078E0DB7B0A790A73A1
:109FD400012B13D0022B14D0E18823898B4205D2A4
:109FE4000020FFF76AFF70B90123E372217B637BD2
:109FF4008B42C9D20020FFF765FFC5E70B88E380D9
:10A00400EAE74B88FBE7112802D10123A372EDE7AD
:10A01400FDF7CCFE374A384B38499B1ADB081B0442
:10A02400024643F00100FCF73FFDDFE71723CB8036
:10A034000B8141F61B3348818B81A5E75B89CA8874
:10A04400934228BF1346172B0A6938BF17230B8185
:10A054004AB1C97A39B140F677210091ADF804309C
:10A06400694620469047002363818DE7DB88C988D1
:10A07400A072172B38BF17238B4228BF0B462381AE
:10A08400FFF71DFF60B1FDF791FE1A4A1A4B1C49F8
:10A094009B1ADB081B04024643F00100FCF704FD95
:10A0A400E37A002B7FF470AF2369002B3FF46CAF8D
:10A0B40040F6772200922289ADF8042069462046B2
:10A0C400984761E7197A237B994228BF194692E79A
:10A0D40011283FF465AFFDF769FE064A064B0749B0
:10A0E4009B1ADB081B04024643F00100FCF7DCFC6E
:10A0F40056E700BF70A90200A8A90200D1B102006E
:10A1040002B20200B0DF704766DF7047034610B545
:10A1140000214088FFF7F8FF024608B91A7210BD03
:10A12400112801D10122F9E75B68BDE81040184706
:10A1340060B159B10378DE2B0AD00B684360DE238B
:10A1440003704FF6FF734380002070470E20704762
:10A154000820704728B10378DE2B04D14180002009
:10A1640070470E20704708207047F0B5054685B04B
:10A174000C46F1B1E8B10B78DE2B1AD182884B88FA
:10A184009A4204D10B7A13B10846FFF7BFFF2B881C
:10A19400112B32D0512B0ED0012B0AD12B7A012B4B
:10A1A40007D1A9886288914203D123722046FFF720
:10A1B400ADFF05B0F0BDAE886388B342F9D1AF7985
:10A1C400022FF6D1AD7B2B1F022BF2D800211022D7
:10A1D400684600F035FB052D14BF4FF4C07300230F
:10A1E400694630468DF80070ADF80430FFF78AFFF9
:10A1F4000028DED063689847DBE76388AA889A4220
:10A2040004BF4FF6FF736380D3E7A8DF7047AEDF68
:10A21400704762DF70470288502A10B40DD1C48899
:10A224004A88944209D1028A012A06D14B6923B192
:10A23400827C5DF8044B808818475DF8044B7047B6
:10A24400F0B50B6843618FB0334B02AA044603F1A7
:10A254001007164618685968154603C50833BB42EB
:10A264002A46F7D104F112013046FFF7D2FF002845
:10A274004FD1A37C8DF80630224641F2235301A925
:10A284000120ADF80430FFF7C0FF002841D101469A
:10A29400202206A800F0D4FA41F22453ADF8183075
:10A2A400A37C8DF81A309DF82530224623F0120342
:10A2B40001254FF0011643F0120332F80A0B0796FA
:10A2C40006A98DF825308DF829508DF82B50FFF70D
:10A2D4004EFDF0B90146202206A800F0B1FA41F281
:10A2E4002553ADF81830A37C8DF81A309DF825302D
:10A2F4000796224623F00A0343F00A0332F8020BBE
:10A304008DF8253006A98DF829508DF82A50FFF7CD
:10A314002EFD0FB0F0BD00BF3EB2020070B588B094
:10A324000E468DF807201022054601240DEB02008D
:10A334000021ADF80E4000F083FA7389ADF81030B7
:10A344000DF10703079304A90DF10E0328468DF8B8
:10A3540012400693FFF75BFF08B070BD10DF704733
:10A3640013B5044609496846FDF7EBFC019808B9A2
:10A3740002B010BDD0E900312046984718B16846B4
:10A38400FDF7E9FCF2E71120F2E700BF54B2020046
:10A3940013B5044607496846FDF7D3FC019B0BB986
:10A3A40002B010BD2046D3E9002190476846FDF76E
:10A3B400D2FCF3E76CB202000B4991F816335A0948
:10A3C400EC231341DB0706D5084B9A683AB94FF4DE
:10A3D40080030B60704742F20200FCF717BE1A6854
:10A3E40042F480021A60704700E100E0602A002015
:10A3F400F7B5194F3C7864BB184E012520463570DB
:10A40400FFF7AEFF112821D02046FFF7C1FF144B00
:10A414008DF80340186801900DF10300FDF7E4F88E
:10A42400104901A8FFF79AFF0446B0FA80F04009EA
:10A4340038709DF80300FDF7FBF83CB90A4B347003
:10A444001C70FFF7B9FF2846FFF7A2FF204603B0B0
:10A45400F0BD0824FAE700BFB92C0020B82C002076
:10A464004EB202002D700200BA2C0020014B187865
:10A47400704700BFB92C002007B508496846FDF7AE
:10A4840060FC019B13B903B05DF804FBD3E9002021
:10A4940090476846FDF75FFCF3E700BF60B2020037
:10A4A400FFF7EABF60DF704769DF704761DF70471D
:10A4B40030B5114B1B7891B0E3B1104D34240DF13C
:10A4C400020103A8ADF80240FFF7F0FF70B9294676
:10A4D40001A8FDF736FC029B002BF0D003A8D3E9BA
:10A4E4000021904701A8FDF736FCF4E7052801D0C8
:10A4F400FCF78CFD11B030BDBB2C0020ACB40200C5
:10A5040030B5054685B00C46002900F097804C4BC9
:10A514000B600C22002101A800F092F901238DF8B0
:10A52400063022688DF80450062301A92020ADF8D6
:10A534000830FFF7B9FF60B1FDF738FC414A424BE0
:10A5440042499B1ADB081B04024643F00100FCF756
:10A55400ABFA0C22002101A800F072F901238DF856
:10A5640005302268002301A94020ADF80630FFF72A
:10A574009BFF60B1FDF71AFC324A334B34499B1AF6
:10A58400DB081B04024643F00100FCF78DFA0C22A1
:10A59400002101A800F054F90A2322688DF8043040
:10A5A40001A90120FFF780FF60B1FDF7FFFB254AF9
:10A5B400254B28499B1ADB081B04024643F0010083
:10A5C400FCF772FA0C22002101A800F039F94FF4CB
:10A5D400B0632268019301A9A120FFF765FF60B170
:10A5E400FDF7E4FB174A184B1B499B1ADB081B04B5
:10A5F400024643F00100FCF757FA0C22002101A89F
:10A6040000F01EF99DF8043022686FF3000301A9DD
:10A61400A0208DF80430FFF747FF68B1FDF7C6FBB3
:10A62400084A094B0D499B1ADB081B04024643F0F8
:10A634000100FCF739FA002005B030BD0E20FBE71D
:10A64400E022002070A90200B8A9020080B2020032
:10A65400C6B2020012B302005EB30200AFB302003E
:10A66400F8B506460768FFF71DFF3368BB42054689
:10A674001DD9194B194C1A49E41AE408240444F06E
:10A6840002042046FCF70CFA336816493A46204681
:10A69400FCF713FA4FF080533268D3F80C311249A7
:10A6A4009B0203F100539A1A2046FCF7FDF925B9E1
:10A6B4000E4B01221A702846F8BD2846FDF776FB9A
:10A6C400054A064B0A499B1ADB081B04024643F061
:10A6D4000100FCF7E9F9EEE770A90200B8A902004D
:10A6E40002B4020031B4020062B40200BB2C0020A8
:10A6F4008CB402004BDF70471FB50D4C01A8FFF767
:10A70400F9FF70B9214602A8FDF71BFB039B002B40
:10A71400F4D00198D3E90021904702A8FDF71BFB70
:10A72400F4E7052801D0FCF771FC04B010BD00BFAC
:10A73400C4B402007F2805D8034B185C034B5B5C50
:10A744001840704700207047DCB402005CB502007A
:10A75400A0F16103192B98BF20387047A0F1410381
:10A76400192B98BF203070477F2805D8034B185CFD
:10A77400034B5B5C1840704700207047DCB4020058
:10A784005CB50200A0F16103192B98BF2038704713
:10A79400A0F14103192B98BF203070477F299ABF3D
:10A7A400017001206FF02E0070475AB10A787F2A99
:10A7B4000AD800B10260002119605960501A18BF0C
:10A7C40001207047002070476FF02E007047000092
:10A7D40008B5034B5B689B681B68984708BD00BFBE
:10A7E4001C23002008B50921FFF7F2FF08BD8446A9
:10A7F40040EA010313F0030F18D18446202A0BD337
:10A804002DE9F007B1E8F807A0E8F807A2F1200263
:10A81400202AF7D2BDE8F007042A07D351F8043BF5
:10A8240040F8043BA2F10402042AF7D2002A05D01E
:10A8340011F8013B00F8013B013AF9D16046704739
:10A844008446002A2DD010F0030F04D000F8011B19
:10A85400013A26D0F7E7C9B241EA012141EA0141B0
:10A86400202A12D3A2F120022DE9F0030B460C4654
:10A874000D460E460F4688468946A0E8FA03203A5C
:10A88400FBD2BDE8F00320320BD0042A05D340F8F4
:10A89400041B043A05D0042AF9D200F8011B013A3A
:10A8A400FBD16046704700F1010110F0030F11D095
:10A8B40010F8012B002A23D010F0030F0AD010F84F
:10A8C400012B002A1CD010F0030F03D010F8012B29
:10A8D400002A15D02DE970004FF001324FF080337B
:10A8E40050F8044BA4EB020525EA04051D4000D1F1
:10A8F400F6E7A0F1040070BC10F8012B002AFBD18C
:06A90400A0EB010070470A
:08A90C00F980020000000000C8
:10A914006D9C020000000000719F0200B02B00201B
:10A92400E99A0200000000006FA10200DC2B002065
:10A934001BA20200C42B002095910200000000001D
:08A9440079810200000000000F
:10A94C00B5A4020000000000FDA6020000000000FB
:10A95C00742300203C240020442400207C2300206D
:04A96C0018000000CF
:10A970005CB002000000000062B0020000000000B5
:10A9800069B00200000000006DB00200000000008D
:10A9900072B00200000000003DAA020000000303A4
:10A9A00056B002000000000031B2020000000303B4
:10A9B00078B2020000000303B8B4020000000303F1
:10A9C000D0B402000000030354AB020000000000FA
:10A9D00000AA0200000000000CAA0200F4220020DD
:10A9E000FFFFFFFFFFFFFFFFFFFFFFFFFFFFFFFF77
:10A9F00000000000000000000000D6010601000079
:10AA0000F164020055650200A16402007561727470
:10AA10005F6C6F675F6261636B656E64000000006E
:10AA2000682800207F000000E82800204261636B56
:10AA3000656E647320666C75736865640061707020
:10AA40000000000077AA0200C0AA02007FAA02004C
:10AA5000C8AA0200D0AA0200D8AA0200E0AA0200F6
:10AA6000E8AA0200F0AA0200202530327800202057
:10AA700020007C002563001B5B306D002573001BEC
:10AA80005B313B33316D0025734C6F67732064720B
:10AA90006F70706564202825642925730D0A003CB9
:10AAA00025733E2025733A200000000000000000BE
:10AAB00016AB0200F8AA020000AB020005AB0200D0
:10AAC0001B5B313B33306D001B5B313B33326D0020
:10AAD0001B5B313B33336D001B5B313B33346D000B
:10AAE0001B5B313B33356D001B5B313B33366D00F7
:10AAF0001B5B313B33376D007761726E696E6700A7
:10AB0000696E666F00646562756700000829002041
:10AB1000466174616C206572726F72005379737450
:10AB2000656D207265736574000000000000000010
:10AB30000338FDD870473031323334353637383941
:10AB4000414243444546000014A9020014A90200F2
:10AB5000040000007077725F6D676D7400556E6B56
:10AB60006E6F776E206572726F7220636F6465001E
:10AB70000000000098AC020001000000A4AC02003C
:10AB800002000000C2AC020003000000E3AC0200BF
:10AB900004000000F6AC02000500000007AD020052
:10ABA000060000001BAD02000700000033AD0200EC
:10ABB000080000004BAD02000900000063AD020078
:10ABC0000A0000007CAD02000B00000094AD020002
:10ABD0000C000000ABAD02000D000000BFAD020094
:10ABE0000E000000D1AD02000F000000E0AD020039
:10ABF00010000000F4AD0200110000000BAE0200D6
:10AC0000120000001AAE0200130000002FAE020076
:10AC10008000000043AE02008100000064AE02002C
:10AC20008200000080AE0200830000009CAE0200A3
:10AC300084000000BAAE020085000000DBAE020016
:10AC40008600000000AF02009000000017AF020075
:10AC50009100000035AF02009200000053AF0200E7
:10AC60000082000068AF02000182000086AF02008F
:10AC700002820000A2AF020000840000BEAF02000A
:10AC800001840000E2AF0200028400000CB0020068
:10AC90000384000031B002004E52465F53554343D7
:10ACA000455353004E52465F4552524F525F5356E2
:10ACB000435F48414E444C45525F4D495353494EC2
:10ACC00047004E52465F4552524F525F534F4654D3
:10ACD0004445564943455F4E4F545F454E41424CB3
:10ACE0004544004E52465F4552524F525F494E54C2
:10ACF00045524E414C004E52465F4552524F525FB4
:10AD00004E4F5F4D454D004E52465F4552524F5299
:10AD10005F4E4F545F464F554E44004E52465F457E
:10AD200052524F525F4E4F545F535550504F5254F2
:10AD30004544004E52465F4552524F525F494E566F
:10AD4000414C49445F504152414D004E52465F458F
:10AD500052524F525F494E56414C49445F53544101
:10AD60005445004E52465F4552524F525F494E562F
:10AD7000414C49445F4C454E475448004E52465F53
:10AD80004552524F525F494E56414C49445F464CE2
:10AD9000414753004E52465F4552524F525F494E13
:10ADA00056414C49445F44415441004E52465F4530
:10ADB00052524F525F444154415F53495A45004EED
:10ADC00052465F4552524F525F54494D454F55547C
:10ADD000004E52465F4552524F525F4E554C4C000A
:10ADE0004E52465F4552524F525F464F524249447F
:10ADF00044454E004E52465F4552524F525F494EB7
:10AE000056414C49445F41444452004E52465F45CE
:10AE100052524F525F42555359004E52465F45526F
:10AE2000524F525F434F4E4E5F434F554E54004E6C
:10AE300052465F4552524F525F5245534F5552430F
:10AE40004553004E52465F4552524F525F4D4F445C
:10AE5000554C455F4E4F545F494E495449414C490A
:10AE60005A4544004E52465F4552524F525F4D552F
:10AE70005445585F494E49545F4641494C4544004A
:10AE80004E52465F4552524F525F4D555445585FA2
:10AE90004C4F434B5F4641494C4544004E52465F40
:10AEA0004552524F525F4D555445585F554E4C4F89
:10AEB000434B5F4641494C4544004E52465F455224
:10AEC000524F525F4D555445585F434F4E445F4972
:10AED0004E49545F4641494C4544004E52465F45F9
:10AEE00052524F525F4D4F44554C455F414C524575
:10AEF0004144595F494E495449414C495A454400DF
:10AF00004E52465F4552524F525F53544F52414743
:10AF1000455F46554C4C004E52465F4552524F528B
:10AF20005F4150495F4E4F545F494D504C454D4530
:10AF30004E544544004E52465F4552524F525F4672
:10AF40004541545552455F4E4F545F454E41424C2A
:10AF50004544004E52465F4552524F525F494F5F43
:10AF600050454E44494E47004E52465F4552524F5F
:10AF7000525F4452565F5457495F4552525F4F5695
:10AF8000455252554E004E52465F4552524F525F07
:10AF90004452565F5457495F4552525F414E4143B8
:10AFA0004B004E52465F4552524F525F4452565FDD
:10AFB0005457495F4552525F444E41434B004E52F5
:10AFC000465F4552524F525F424C455F4950535085
:10AFD0005F52585F504B545F5452554E4341544555
:10AFE00044004E52465F4552524F525F424C455FBD
:10AFF000495053505F4348414E4E454C5F414C527F
:10B00000454144595F455849535453004E52465F99
:10B010004552524F525F424C455F495053505F4C2E
:10B02000494E4B5F444953434F4E4E45435445446C
:10B03000004E52465F4552524F525F424C455F4967
:10B040005053505F504545525F52454A4543544521
:10B0500044000608290C636C6F636B00434C4F433C
:10B060004B004750494F54450050525300554152F0
:10B070005400554152544500436F6E6E65637465CC
:10B080006400446973636F6E6E6563746564005336
:10B09000656E6420627574746F6E2073746174657C
:10B0A000206368616E67652E005265636569766529
:10B0B00064204C4544204F4E2100526563656976FB
:10B0C0006564204C4544204F464621004E6F726413
:10B0D00069635F426C696E6B7900426C696E6B7973
:10B0E000206578616D706C6520737461727465643D
:10B0F0002E0073645F626C655F6761705F6461748A
:10B10000615F6C656E6774685F75706461746528F3
:10B110002920287265717565737429206F6E20630C
:10B120006F6E6E656374696F6E203078257820725B
:10B13000657475726E65642025732E0054686520F1
:10B140007265717565737465642054582F52582068
:10B150007061636B6574206C656E677468206973D9
:10B1600020746F6F206C6F6E672062792025752FB9
:10B170002575206F63746574732E005468652072A2
:10B18000657175657374656420636F6D62696E6166
:10B1900074696F6E206F6620545820616E6420526F
:10B1A00058207061636B6574206C656E677468739A
:10B1B00020697320746F6F206C6F6E672062792036
:10B1C0002575206D6963726F7365636F6E64732E8E
:10B1D0000073645F626C655F67617474635F657858
:10B1E0006368616E67655F6D74755F7265717565C3
:10B1F000737428292072657475726E6564202573D6
:10B200002E0073645F626C655F67617474735F6561
:10B21000786368616E67655F6D74755F7265706C89
:10B220007928292072657475726E65642025732EE5
:10B23000006E72665F626C655F676174740023D133
:10B24000BCEA5F782315DEEF121200000000010057
:10B250000007000044A9020044A902000800000001
:10B260004CA902005CA902000800000044A90200E9
:10B270004CA90200080000006E72665F73646800EB
:10B2800073645F626C655F6366675F7365742829CA
:10B290002072657475726E65642025732077686509
:10B2A0006E20617474656D7074696E6720746F20B0
:10B2B00073657420424C455F434F4E4E5F43464793
:10B2C0005F4741502E0073645F626C655F63666721
:10B2D0005F73657428292072657475726E656420C9
:10B2E0002573207768656E20617474656D7074696C
:10B2F0006E6720746F2073657420424C455F474130
:10B30000505F4346475F524F4C455F434F554E5445
:10B310002E0073645F626C655F6366675F7365745C
:10B3200028292072657475726E65642025732077F4
:10B3300068656E20617474656D7074696E672074E1
:10B340006F2073657420424C455F434F4D4D4F4E07
:10B350005F4346475F56535F555549442E0073641B
:10B360005F626C655F6366675F736574282920722E
:10B37000657475726E6564202573207768656E202C
:10B38000617474656D7074696E6720746F20736585
:10B390007420424C455F47415454535F4346475FD6
:10B3A000415454525F5441425F53495A452E0073F1
:10B3B000645F626C655F6366675F736574282920EC
:10B3C00072657475726E6564202573207768656E8A
:10B3D00020617474656D7074696E6720746F20737A
:10B3E000657420424C455F47415454535F43464780
:10B3F0005F534552564943455F4348414E47454494
:10B400002E00496E73756666696369656E742052B5
:10B41000414D20616C6C6F636174656420666F726E
:10B420002074686520536F66744465766963652E81
:10B43000004368616E6765207468652052414D2045
:10B440007374617274206C6F636174696F6E2066CF
:10B45000726F6D203078257820746F2030782578D1
:10B460002E004D6178696D756D2052414D207369D4
:10B470007A6520666F72206170706C6963617469AF
:10B480006F6E20697320307825782E0073645F62B8
:10B490006C655F656E61626C6528292072657475E4
:10B4A000726E65642025732E0000000014A902004E
:10B4B00044A90200080000006E72665F7364685F52
:10B4C000626C65000CA9020014A9020008000000CB
:10B4D0006E72665F7364685F736F63002020202064
:10B4E00020202020206828282828202020202020F4
:10B4F0002020202020202020202020204810101054
:10B50000101010101010101010101010848484846B
:10B510008484848484841010101010101081818120
:10B52000818181010101010101010101010101018B
:10B53000010101010101011010101010108282821E
:10B54000828282020202020202020202020202025B
:10B550000202020202020210101010200007032053
:10B5600004170201085710408000000010B70200C5
:10B57000D4B50200E8B6020053756E004D6F6E0040
:10B58000547565005765640054687500467269001B
:10B5900053617400000000004A616E00466562005D
:10B5A0004D617200417072004D6179004A756E0004
:10B5B0004A756C0041756700536570004F637400F5
:10B5C0004E6F76004465630000000000414D00505E
:10B5D0004D0000000CB7020008B7020008B70200D7
:10B5E00008B7020008B7020008B7020008B7020057
:10B5F00008B7020008B7020008B70200FFFFFFFF0C
:10B60000FFFFFFFFFFFFFFFFFFFF000048B6020044
:10B6100078B5020084B6020098B50200CCB50200ED
:10B620002CB60200DCB6020038B60200256D2F25CC
:10B63000642F257900000000256120256220256502
:10B64000202554202559000053756E646179004D02
:10B650006F6E646179005475657364617900576534
:10B66000646E65736461790054687572736461799E
:10B67000004672696461790053617475726461791E
:10B68000000000004A616E75617279004665627261
:10B6900075617279004D6172636800417072696C06
:10B6A000004D6179004A756E65004A756C790041FC
:10B6B00075677573740053657074656D62657200AB
:10B6C0004F63746F626572004E6F76656D6265726E
:10B6D00000446563656D62657200000025483A2587
:10B6E0004D3A25530000000039A7020055A702007B
:10B6F00061A702006DA7020089A7020095A70200BA
:10B70000A1A70200AFA70200000000002E00000069
:0CB7100043000000504F53495800000057
:10B71C00000000000020004000000000002000405D
:10B72C000000000000000000FF0000000090D003AB
:10B73C00260003009D920200702B00201F000000C9
:10B74C008F2B00201F000000FF00FFFF6CB50200D4
:10B75C006CB502006CB502006CB502006CB5020051
:040000032000637501
:00000001FF
